{
  "contractName": "ERC721Enumerable",
  "abi": [
    {
      "anonymous": false,
      "inputs": [
        {
          "indexed": true,
          "internalType": "address",
          "name": "from",
          "type": "address"
        },
        {
          "indexed": true,
          "internalType": "address",
          "name": "to",
          "type": "address"
        },
        {
          "indexed": true,
          "internalType": "uint256",
          "name": "tokenId",
          "type": "uint256"
        }
      ],
      "name": "Transfer",
      "type": "event"
    },
    {
      "inputs": [
        {
          "internalType": "address",
          "name": "_owner",
          "type": "address"
        }
      ],
      "name": "balanceOf",
      "outputs": [
        {
          "internalType": "uint256",
          "name": "",
          "type": "uint256"
        }
      ],
      "stateMutability": "view",
      "type": "function"
    },
    {
      "inputs": [
        {
          "internalType": "uint256",
          "name": "_tokenId",
          "type": "uint256"
        }
      ],
      "name": "ownerOf",
      "outputs": [
        {
          "internalType": "address",
          "name": "",
          "type": "address"
        }
      ],
      "stateMutability": "view",
      "type": "function"
    },
    {
      "inputs": [],
      "name": "tokenByIndex",
      "outputs": [
        {
          "internalType": "uint256",
          "name": "index",
          "type": "uint256"
        }
      ],
      "stateMutability": "view",
      "type": "function"
    },
    {
      "inputs": [
        {
          "internalType": "address",
          "name": "owner",
          "type": "address"
        },
        {
          "internalType": "uint256",
          "name": "index",
          "type": "uint256"
        }
      ],
      "name": "tokenOfOwnerByIndex",
      "outputs": [
        {
          "internalType": "uint256",
          "name": "",
          "type": "uint256"
        }
      ],
      "stateMutability": "view",
      "type": "function"
    },
    {
      "inputs": [],
      "name": "totalSupply",
      "outputs": [
        {
          "internalType": "uint256",
          "name": "",
          "type": "uint256"
        }
      ],
      "stateMutability": "view",
      "type": "function"
    }
  ],
  "bytecode": "0x608060405234801561001057600080fd5b506106b6806100206000396000f3fe608060405234801561001057600080fd5b50600436106100575760003560e01c806318160ddd1461005c5780632f745c591461007a5780636352211e146100aa57806370a08231146100da57806383d7f6df1461010a575b600080fd5b610064610128565b60405161007191906103d4565b60405180910390f35b610094600480360381019061008f919061047e565b610135565b6040516100a191906103d4565b60405180910390f35b6100c460048036038101906100bf91906104be565b6101e5565b6040516100d191906104fa565b60405180910390f35b6100f460048036038101906100ef9190610515565b610295565b60405161010191906103d4565b60405180910390f35b61011261034c565b60405161011f91906103d4565b60405180910390f35b6000600280549050905090565b600061014083610295565b8210610181576040517f08c379a00000000000000000000000000000000000000000000000000000000081526004016101789061059f565b60405180910390fd5b600460008473ffffffffffffffffffffffffffffffffffffffff1673ffffffffffffffffffffffffffffffffffffffff16815260200190815260200160002082815481106101d2576101d16105bf565b5b9060005260206000200154905092915050565b60008060008084815260200190815260200160002060009054906101000a900473ffffffffffffffffffffffffffffffffffffffff169050600073ffffffffffffffffffffffffffffffffffffffff168173ffffffffffffffffffffffffffffffffffffffff160361028c576040517f08c379a000000000000000000000000000000000000000000000000000000000815260040161028390610660565b60405180910390fd5b80915050919050565b60008073ffffffffffffffffffffffffffffffffffffffff168273ffffffffffffffffffffffffffffffffffffffff1603610305576040517f08c379a00000000000000000000000000000000000000000000000000000000081526004016102fc90610660565b60405180910390fd5b600160008373ffffffffffffffffffffffffffffffffffffffff1673ffffffffffffffffffffffffffffffffffffffff168152602001908152602001600020549050919050565b6000610356610128565b8110610397576040517f08c379a000000000000000000000000000000000000000000000000000000000815260040161038e9061059f565b60405180910390fd5b600281815481106103ab576103aa6105bf565b5b9060005260206000200154905090565b6000819050919050565b6103ce816103bb565b82525050565b60006020820190506103e960008301846103c5565b92915050565b600080fd5b600073ffffffffffffffffffffffffffffffffffffffff82169050919050565b600061041f826103f4565b9050919050565b61042f81610414565b811461043a57600080fd5b50565b60008135905061044c81610426565b92915050565b61045b816103bb565b811461046657600080fd5b50565b60008135905061047881610452565b92915050565b60008060408385031215610495576104946103ef565b5b60006104a38582860161043d565b92505060206104b485828601610469565b9150509250929050565b6000602082840312156104d4576104d36103ef565b5b60006104e284828501610469565b91505092915050565b6104f481610414565b82525050565b600060208201905061050f60008301846104eb565b92915050565b60006020828403121561052b5761052a6103ef565b5b60006105398482850161043d565b91505092915050565b600082825260208201905092915050565b7f676c6f62616c20696e646578206973206f7574206f6620626f756e6473210000600082015250565b6000610589601e83610542565b915061059482610553565b602082019050919050565b600060208201905081810360008301526105b88161057c565b9050919050565b7f4e487b7100000000000000000000000000000000000000000000000000000000600052603260045260246000fd5b7f6f776e657220717565727920666f72206e6f6e2d6578697374656e7420746f6b60008201527f656e000000000000000000000000000000000000000000000000000000000000602082015250565b600061064a602283610542565b9150610655826105ee565b604082019050919050565b600060208201905081810360008301526106798161063d565b905091905056fea264697066735822122025ad1e03ceb5dcdf826274996863cc1327d5638ba3ced6f9c000ba7cc841886864736f6c634300080d0033",
  "immutableReferences": {},
  "source": "// SPDX-License-Identifier: MIT\npragma solidity ^0.8.0;\n\nimport './ERC721.sol';\n\ncontract ERC721Enumerable is ERC721 {\n\n    uint256[] private _allTokens;\n\n        // CHALLENGE! Write out mapping yourself\n    // mapping from tokenId to position in _allTokens array\n      mapping(uint256 => uint256) private _allTokensIndex;\n\n    // mapping of owner to list of all owner token ids\n      mapping(address => uint256[]) private _ownedTokens;\n\n    // mapping from token ID to index of the owner tokens list\n      mapping(uint256 => uint256) private _ownedTokensIndex;\n\n    //function tokenByIndex(uint256 _index) external view returns (uint256);\n\n    //function tokenOfOwnerByIndex(address _owner, uint256 _index) external view returns (uint256);\n\n    function _mint(address to, uint256 tokenId) internal override(ERC721) {\n      super._mint(to, tokenId);\n      // 2 things! A. add tokens to the owner\n      // B. all tokens to our totalsupply - to allTokens\n      _addTokensToAllTokenEnumeration(tokenId);\n      _addTokensToOwnerEnumeration(to, tokenId);\n    }\n\n    // add tokens to the _allTokens array and set the position of the tokens indexes\n    function _addTokensToAllTokenEnumeration(uint256 tokenId) private {\n      //_allTokensIndex[tokenId] = _allTokens.length;\n      _allTokens.push(tokenId);\n    }\n\n    function _addTokensToOwnerEnumeration(address to, uint256 tokenId) private {\n      // EXERCISE - CHALLENGE - DO THESE THREE THINGS:\n      // 1. add address and token id to the _ownedTokens\n      _ownedTokens[to].push(tokenId);\n      // 2. ownedTokensIndex tokenId set to the address of the ownedTokens position\n      _ownedTokensIndex[tokenId] = _ownedTokens[to].length;\n      // 3. we want to execute the function with minting\n      _addTokensToAllTokenEnumeration(tokenId);\n    }\n\n    // two functions - one that returns tokenByIndex\n    // another one that returns tokenOfOwnerByIndex\n\n    function tokenByIndex() public view returns(uint256 index) {\n      // make sure that the index is not out of bounds\n      require(index < totalSupply(), 'global index is out of bounds!');\n      return _allTokens[index];\n    }\n\n    function tokenOfOwnerByIndex(address owner, uint index) public view returns(uint256) {\n      require(index < balanceOf(owner), 'global index is out of bounds!');\n      return _ownedTokens[owner][index];\n    }\n\n    // return the total supply of the _allTokens array\n    function totalSupply() public view returns(uint256) {\n      return _allTokens.length;\n    }\n}",
  "sourcePath": "/Users/andrewelkins/Desktop/nft-marketplace-starter-kit/src/contracts/ERC721Enumerable.sol",
  "compiler": {
    "name": "solc",
    "version": "0.8.13+commit.abaa5c0e.Emscripten.clang"
  },
  "schemaVersion": "3.4.7",
  "updatedAt": "2022-05-07T13:06:51.413Z",
  "devdoc": {
    "kind": "dev",
    "methods": {},
    "version": 1
  },
  "userdoc": {
    "kind": "user",
    "methods": {},
    "version": 1
  }
}