{
  "contractName": "KryptoBird",
  "abi": [
    {
      "inputs": [],
      "stateMutability": "nonpayable",
      "type": "constructor"
    },
    {
      "anonymous": false,
      "inputs": [
        {
          "indexed": true,
          "internalType": "address",
          "name": "from",
          "type": "address"
        },
        {
          "indexed": true,
          "internalType": "address",
          "name": "to",
          "type": "address"
        },
        {
          "indexed": true,
          "internalType": "uint256",
          "name": "tokenId",
          "type": "uint256"
        }
      ],
      "name": "Transfer",
      "type": "event"
    },
    {
      "inputs": [
        {
          "internalType": "address",
          "name": "_owner",
          "type": "address"
        }
      ],
      "name": "balanceOf",
      "outputs": [
        {
          "internalType": "uint256",
          "name": "",
          "type": "uint256"
        }
      ],
      "stateMutability": "view",
      "type": "function",
      "constant": true
    },
    {
      "inputs": [
        {
          "internalType": "uint256",
          "name": "",
          "type": "uint256"
        }
      ],
      "name": "kryptoBirdz",
      "outputs": [
        {
          "internalType": "string",
          "name": "",
          "type": "string"
        }
      ],
      "stateMutability": "view",
      "type": "function",
      "constant": true
    },
    {
      "inputs": [],
      "name": "name",
      "outputs": [
        {
          "internalType": "string",
          "name": "",
          "type": "string"
        }
      ],
      "stateMutability": "view",
      "type": "function",
      "constant": true
    },
    {
      "inputs": [
        {
          "internalType": "uint256",
          "name": "_tokenId",
          "type": "uint256"
        }
      ],
      "name": "ownerOf",
      "outputs": [
        {
          "internalType": "address",
          "name": "",
          "type": "address"
        }
      ],
      "stateMutability": "view",
      "type": "function",
      "constant": true
    },
    {
      "inputs": [],
      "name": "symbol",
      "outputs": [
        {
          "internalType": "string",
          "name": "",
          "type": "string"
        }
      ],
      "stateMutability": "view",
      "type": "function",
      "constant": true
    },
    {
      "inputs": [],
      "name": "tokenByIndex",
      "outputs": [
        {
          "internalType": "uint256",
          "name": "index",
          "type": "uint256"
        }
      ],
      "stateMutability": "view",
      "type": "function",
      "constant": true
    },
    {
      "inputs": [
        {
          "internalType": "address",
          "name": "owner",
          "type": "address"
        },
        {
          "internalType": "uint256",
          "name": "index",
          "type": "uint256"
        }
      ],
      "name": "tokenOfOwnerByIndex",
      "outputs": [
        {
          "internalType": "uint256",
          "name": "",
          "type": "uint256"
        }
      ],
      "stateMutability": "view",
      "type": "function",
      "constant": true
    },
    {
      "inputs": [],
      "name": "totalSupply",
      "outputs": [
        {
          "internalType": "uint256",
          "name": "",
          "type": "uint256"
        }
      ],
      "stateMutability": "view",
      "type": "function",
      "constant": true
    },
    {
      "inputs": [
        {
          "internalType": "string",
          "name": "_kryptoBird",
          "type": "string"
        }
      ],
      "name": "mint",
      "outputs": [],
      "stateMutability": "nonpayable",
      "type": "function"
    }
  ],
  "bytecode": "0x60806040523480156200001157600080fd5b506040518060400160405280600a81526020017f4b727970746f42697264000000000000000000000000000000000000000000008152506040518060400160405280600681526020017f4b424952445a00000000000000000000000000000000000000000000000000008152508181816000908051906020019062000098929190620000bc565b508060019080519060200190620000b1929190620000bc565b5050505050620001d0565b828054620000ca906200019b565b90600052602060002090601f016020900481019282620000ee57600085556200013a565b82601f106200010957805160ff19168380011785556200013a565b828001600101855582156200013a579182015b82811115620001395782518255916020019190600101906200011c565b5b5090506200014991906200014d565b5090565b5b80821115620001685760008160009055506001016200014e565b5090565b7f4e487b7100000000000000000000000000000000000000000000000000000000600052602260045260246000fd5b60006002820490506001821680620001b457607f821691505b602082108103620001ca57620001c96200016c565b5b50919050565b6113c680620001e06000396000f3fe608060405234801561001057600080fd5b50600436106100935760003560e01c806370a082311161006657806370a082311461013457806383d7f6df1461016457806393ab6e561461018257806395d89b41146101b2578063d85d3d27146101d057610093565b806306fdde031461009857806318160ddd146100b65780632f745c59146100d45780636352211e14610104575b600080fd5b6100a06101ec565b6040516100ad9190610c31565b60405180910390f35b6100be61027e565b6040516100cb9190610c6c565b60405180910390f35b6100ee60048036038101906100e99190610d25565b61028b565b6040516100fb9190610c6c565b60405180910390f35b61011e60048036038101906101199190610d65565b61033b565b60405161012b9190610da1565b60405180910390f35b61014e60048036038101906101499190610dbc565b6103ec565b60405161015b9190610c6c565b60405180910390f35b61016c6104a3565b6040516101799190610c6c565b60405180910390f35b61019c60048036038101906101979190610d65565b610512565b6040516101a99190610c31565b60405180910390f35b6101ba6105be565b6040516101c79190610c31565b60405180910390f35b6101ea60048036038101906101e59190610f1e565b610650565b005b6060600080546101fb90610f96565b80601f016020809104026020016040519081016040528092919081815260200182805461022790610f96565b80156102745780601f1061024957610100808354040283529160200191610274565b820191906000526020600020905b81548152906001019060200180831161025757829003601f168201915b5050505050905090565b6000600480549050905090565b6000610296836103ec565b82106102d7576040517f08c379a00000000000000000000000000000000000000000000000000000000081526004016102ce90611013565b60405180910390fd5b600660008473ffffffffffffffffffffffffffffffffffffffff1673ffffffffffffffffffffffffffffffffffffffff168152602001908152602001600020828154811061032857610327611033565b5b9060005260206000200154905092915050565b6000806002600084815260200190815260200160002060009054906101000a900473ffffffffffffffffffffffffffffffffffffffff169050600073ffffffffffffffffffffffffffffffffffffffff168173ffffffffffffffffffffffffffffffffffffffff16036103e3576040517f08c379a00000000000000000000000000000000000000000000000000000000081526004016103da906110d4565b60405180910390fd5b80915050919050565b60008073ffffffffffffffffffffffffffffffffffffffff168273ffffffffffffffffffffffffffffffffffffffff160361045c576040517f08c379a0000000000000000000000000000000000000000000000000000000008152600401610453906110d4565b60405180910390fd5b600360008373ffffffffffffffffffffffffffffffffffffffff1673ffffffffffffffffffffffffffffffffffffffff168152602001908152602001600020549050919050565b60006104ad61027e565b81106104ee576040517f08c379a00000000000000000000000000000000000000000000000000000000081526004016104e590611013565b60405180910390fd5b6004818154811061050257610501611033565b5b9060005260206000200154905090565b6008818154811061052257600080fd5b90600052602060002001600091509050805461053d90610f96565b80601f016020809104026020016040519081016040528092919081815260200182805461056990610f96565b80156105b65780601f1061058b576101008083540402835291602001916105b6565b820191906000526020600020905b81548152906001019060200180831161059957829003601f168201915b505050505081565b6060600180546105cd90610f96565b80601f01602080910402602001604051908101604052809291908181526020018280546105f990610f96565b80156106465780601f1061061b57610100808354040283529160200191610646565b820191906000526020600020905b81548152906001019060200180831161062957829003601f168201915b5050505050905090565b6009816040516106609190611130565b908152602001604051809103902060009054906101000a900460ff16156106bc576040517f08c379a00000000000000000000000000000000000000000000000000000000081526004016106b3906111b9565b60405180910390fd5b6008819080600181540180825580915050600190039060005260206000200160009091909190915090805190602001906106f7929190610af5565b506000600160088054905061070c9190611208565b90506107183382610753565b600160098360405161072a9190611130565b908152602001604051809103902060006101000a81548160ff0219169083151502179055505050565b61075d8282610774565b6107668161096d565b61077082826109b6565b5050565b600073ffffffffffffffffffffffffffffffffffffffff168273ffffffffffffffffffffffffffffffffffffffff16036107e3576040517f08c379a00000000000000000000000000000000000000000000000000000000081526004016107da906112ae565b60405180910390fd5b6107ec81610a83565b1561082c576040517f08c379a00000000000000000000000000000000000000000000000000000000081526004016108239061131a565b60405180910390fd5b816002600083815260200190815260200160002060006101000a81548173ffffffffffffffffffffffffffffffffffffffff021916908373ffffffffffffffffffffffffffffffffffffffff1602179055506001600360008473ffffffffffffffffffffffffffffffffffffffff1673ffffffffffffffffffffffffffffffffffffffff168152602001908152602001600020546108ca919061133a565b600360008473ffffffffffffffffffffffffffffffffffffffff1673ffffffffffffffffffffffffffffffffffffffff16815260200190815260200160002081905550808273ffffffffffffffffffffffffffffffffffffffff16600073ffffffffffffffffffffffffffffffffffffffff167fddf252ad1be2c89b69c2b068fc378daa952ba7f163c4a11628f55a4df523b3ef60405160405180910390a45050565b6004805490506005600083815260200190815260200160002081905550600481908060018154018082558091505060019003906000526020600020016000909190919091505550565b600660008373ffffffffffffffffffffffffffffffffffffffff1673ffffffffffffffffffffffffffffffffffffffff168152602001908152602001600020819080600181540180825580915050600190039060005260206000200160009091909190915055600660008373ffffffffffffffffffffffffffffffffffffffff1673ffffffffffffffffffffffffffffffffffffffff168152602001908152602001600020805490506007600083815260200190815260200160002081905550610a7f8161096d565b5050565b6000806002600084815260200190815260200160002060009054906101000a900473ffffffffffffffffffffffffffffffffffffffff169050600073ffffffffffffffffffffffffffffffffffffffff168173ffffffffffffffffffffffffffffffffffffffff161415915050919050565b828054610b0190610f96565b90600052602060002090601f016020900481019282610b235760008555610b6a565b82601f10610b3c57805160ff1916838001178555610b6a565b82800160010185558215610b6a579182015b82811115610b69578251825591602001919060010190610b4e565b5b509050610b779190610b7b565b5090565b5b80821115610b94576000816000905550600101610b7c565b5090565b600081519050919050565b600082825260208201905092915050565b60005b83811015610bd2578082015181840152602081019050610bb7565b83811115610be1576000848401525b50505050565b6000601f19601f8301169050919050565b6000610c0382610b98565b610c0d8185610ba3565b9350610c1d818560208601610bb4565b610c2681610be7565b840191505092915050565b60006020820190508181036000830152610c4b8184610bf8565b905092915050565b6000819050919050565b610c6681610c53565b82525050565b6000602082019050610c816000830184610c5d565b92915050565b6000604051905090565b600080fd5b600080fd5b600073ffffffffffffffffffffffffffffffffffffffff82169050919050565b6000610cc682610c9b565b9050919050565b610cd681610cbb565b8114610ce157600080fd5b50565b600081359050610cf381610ccd565b92915050565b610d0281610c53565b8114610d0d57600080fd5b50565b600081359050610d1f81610cf9565b92915050565b60008060408385031215610d3c57610d3b610c91565b5b6000610d4a85828601610ce4565b9250506020610d5b85828601610d10565b9150509250929050565b600060208284031215610d7b57610d7a610c91565b5b6000610d8984828501610d10565b91505092915050565b610d9b81610cbb565b82525050565b6000602082019050610db66000830184610d92565b92915050565b600060208284031215610dd257610dd1610c91565b5b6000610de084828501610ce4565b91505092915050565b600080fd5b600080fd5b7f4e487b7100000000000000000000000000000000000000000000000000000000600052604160045260246000fd5b610e2b82610be7565b810181811067ffffffffffffffff82111715610e4a57610e49610df3565b5b80604052505050565b6000610e5d610c87565b9050610e698282610e22565b919050565b600067ffffffffffffffff821115610e8957610e88610df3565b5b610e9282610be7565b9050602081019050919050565b82818337600083830152505050565b6000610ec1610ebc84610e6e565b610e53565b905082815260208101848484011115610edd57610edc610dee565b5b610ee8848285610e9f565b509392505050565b600082601f830112610f0557610f04610de9565b5b8135610f15848260208601610eae565b91505092915050565b600060208284031215610f3457610f33610c91565b5b600082013567ffffffffffffffff811115610f5257610f51610c96565b5b610f5e84828501610ef0565b91505092915050565b7f4e487b7100000000000000000000000000000000000000000000000000000000600052602260045260246000fd5b60006002820490506001821680610fae57607f821691505b602082108103610fc157610fc0610f67565b5b50919050565b7f676c6f62616c20696e646578206973206f7574206f6620626f756e6473210000600082015250565b6000610ffd601e83610ba3565b915061100882610fc7565b602082019050919050565b6000602082019050818103600083015261102c81610ff0565b9050919050565b7f4e487b7100000000000000000000000000000000000000000000000000000000600052603260045260246000fd5b7f6f776e657220717565727920666f72206e6f6e2d6578697374656e7420746f6b60008201527f656e000000000000000000000000000000000000000000000000000000000000602082015250565b60006110be602283610ba3565b91506110c982611062565b604082019050919050565b600060208201905081810360008301526110ed816110b1565b9050919050565b600081905092915050565b600061110a82610b98565b61111481856110f4565b9350611124818560208601610bb4565b80840191505092915050565b600061113c82846110ff565b915081905092915050565b7f4572726f72202d206b727970746f4269726420616c726561647920657869737460008201527f7300000000000000000000000000000000000000000000000000000000000000602082015250565b60006111a3602183610ba3565b91506111ae82611147565b604082019050919050565b600060208201905081810360008301526111d281611196565b9050919050565b7f4e487b7100000000000000000000000000000000000000000000000000000000600052601160045260246000fd5b600061121382610c53565b915061121e83610c53565b925082821015611231576112306111d9565b5b828203905092915050565b7f4552433732313a206d696e74696e6720746f20746865207a65726f206164647260008201527f6573730000000000000000000000000000000000000000000000000000000000602082015250565b6000611298602383610ba3565b91506112a38261123c565b604082019050919050565b600060208201905081810360008301526112c78161128b565b9050919050565b7f4552433732313a20746f6b656e20616c7265616479206d696e74656400000000600082015250565b6000611304601c83610ba3565b915061130f826112ce565b602082019050919050565b60006020820190508181036000830152611333816112f7565b9050919050565b600061134582610c53565b915061135083610c53565b9250827fffffffffffffffffffffffffffffffffffffffffffffffffffffffffffffffff03821115611385576113846111d9565b5b82820190509291505056fea2646970667358221220d88e715aa6c359e6e3edcb884ea707c959e950938520e802f7814bc7cb18175d64736f6c634300080d0033",
  "immutableReferences": {},
  "source": "// SPDX-License-Identifier: MIT\npragma solidity ^0.8.0;\n\nimport \"./ERC721Connector.sol\";\n\ncontract KryptoBird is ERC721Connector {\n\n    // array to store out NFTs\n    string [] public kryptoBirdz;\n    mapping(string => bool) _kryptoBirdzExists;\n    function mint(string memory _kryptoBird) public {\n        require(!_kryptoBirdzExists[_kryptoBird], 'Error - kryptoBird already exists');\n        // this is deprecated - uint _id = KryptoBirdz.push(_kryptoBird);\n        kryptoBirdz.push(_kryptoBird);\n        uint _id = kryptoBirdz.length - 1;\n\n        // .push no longer returns the length but a ref to the added element\n        _mint(msg.sender, _id);\n        _kryptoBirdzExists[_kryptoBird] = true;\n    }\n    constructor() ERC721Connector('KryptoBird', 'KBIRDZ')\n        {}\n}",
  "sourcePath": "/Users/andrewelkins/Desktop/nft-marketplace-starter-kit/src/contracts/KryptoBirdz.sol",
  "compiler": {
    "name": "solc",
    "version": "0.8.13+commit.abaa5c0e.Emscripten.clang"
  },
  "schemaVersion": "3.4.7",
  "updatedAt": "2022-05-02T23:07:28.888Z",
  "networkType": "ethereum",
  "devdoc": {
    "kind": "dev",
    "methods": {},
    "version": 1
  },
  "userdoc": {
    "kind": "user",
    "methods": {},
    "version": 1
  }
}